{
  "contractName": "ContratoInicial",
  "abi": [
    {
      "constant": true,
      "inputs": [
        {
          "internalType": "uint256",
          "name": "",
          "type": "uint256"
        }
      ],
      "name": "perrosAdoptados",
      "outputs": [
        {
          "internalType": "address",
          "name": "",
          "type": "address"
        }
      ],
      "payable": false,
      "stateMutability": "view",
      "type": "function"
    },
    {
      "constant": false,
      "inputs": [
        {
          "internalType": "uint256",
          "name": "perroIndex",
          "type": "uint256"
        }
      ],
      "name": "adoptar",
      "outputs": [
        {
          "internalType": "bool",
          "name": "",
          "type": "bool"
        }
      ],
      "payable": false,
      "stateMutability": "nonpayable",
      "type": "function"
    },
    {
      "constant": false,
      "inputs": [
        {
          "internalType": "uint256",
          "name": "perroIndex",
          "type": "uint256"
        }
      ],
      "name": "desadoptar",
      "outputs": [
        {
          "internalType": "bool",
          "name": "",
          "type": "bool"
        }
      ],
      "payable": false,
      "stateMutability": "nonpayable",
      "type": "function"
    },
    {
      "constant": true,
      "inputs": [],
      "name": "getPerrosAdoptados",
      "outputs": [
        {
          "internalType": "address[16]",
          "name": "",
          "type": "address[16]"
        }
      ],
      "payable": false,
      "stateMutability": "view",
      "type": "function"
    }
  ],
  "bytecode": "0x608060405234801561001057600080fd5b50610538806100206000396000f3fe608060405234801561001057600080fd5b506004361061004c5760003560e01c80633a05b9fc146100515780633a15b57f14610097578063849516cb146100dd578063e56a841214610123575b600080fd5b61007d6004803603602081101561006757600080fd5b8101908080359060200190929190505050610191565b604051808215151515815260200191505060405180910390f35b61009f6102df565b6040518082601060200280838360005b838110156100ca5780820151818401526020810190506100af565b5050505090500191505060405180910390f35b610109600480360360208110156100f357600080fd5b8101908080359060200190929190505050610360565b604051808215151515815260200191505060405180910390f35b61014f6004803603602081101561013957600080fd5b81019080803590602001909291905050506104ad565b604051808273ffffffffffffffffffffffffffffffffffffffff1673ffffffffffffffffffffffffffffffffffffffff16815260200191505060405180910390f35b60008082101580156101a45750600f8211155b610216576040517f08c379a000000000000000000000000000000000000000000000000000000000815260040180806020018281038252600e8152602001807f46756572612064652052616e676f00000000000000000000000000000000000081525060200191505060405180910390fd5b600060019050600073ffffffffffffffffffffffffffffffffffffffff166000846010811061024157fe5b0160009054906101000a900473ffffffffffffffffffffffffffffffffffffffff1673ffffffffffffffffffffffffffffffffffffffff1614156102d157336000846010811061028d57fe5b0160006101000a81548173ffffffffffffffffffffffffffffffffffffffff021916908373ffffffffffffffffffffffffffffffffffffffff1602179055506102d6565b600090505b80915050919050565b6102e76104e0565b6000601080602002604051908101604052809291908260108015610356576020028201915b8160009054906101000a900473ffffffffffffffffffffffffffffffffffffffff1673ffffffffffffffffffffffffffffffffffffffff168152602001906001019080831161030c575b5050505050905090565b60008082101580156103735750600f8211155b6103e5576040517f08c379a000000000000000000000000000000000000000000000000000000000815260040180806020018281038252600e8152602001807f46756572612064652052616e676f00000000000000000000000000000000000081525060200191505060405180910390fd5b6000600190503373ffffffffffffffffffffffffffffffffffffffff166000846010811061040f57fe5b0160009054906101000a900473ffffffffffffffffffffffffffffffffffffffff1673ffffffffffffffffffffffffffffffffffffffff16141561049f57600080846010811061045b57fe5b0160006101000a81548173ffffffffffffffffffffffffffffffffffffffff021916908373ffffffffffffffffffffffffffffffffffffffff1602179055506104a4565b600090505b80915050919050565b600081601081106104ba57fe5b016000915054906101000a900473ffffffffffffffffffffffffffffffffffffffff1681565b60405180610200016040528060109060208202803883398082019150509050509056fea265627a7a7231582087ea78c7b54cf559c15febc34780df95f75d08c923a9cd79d285c820405c881b64736f6c63430005100032",
  "source": "// SPDX-License-Identifier: MIT\npragma solidity >=0.4.22 <0.9.0;\n\ncontract ContratoInicial {\n  address[16] public perrosAdoptados;\n\n  function adoptar(uint perroIndex) public returns(bool){\n    require(perroIndex >=0 && perroIndex<= 15,\"Fuera de Rango\");\n    bool adoptarConExito=true;\n\n    if(perrosAdoptados[perroIndex] ==address(0)){\n      perrosAdoptados[perroIndex]= msg.sender;\n    }else{\n      adoptarConExito=false;\n    }\n    return adoptarConExito;\n\n  }\n\n  function desadoptar(uint perroIndex) public returns(bool){\n    require(perroIndex >=0 && perroIndex<= 15,\"Fuera de Rango\");\n    bool desAdoptarConExito=true;\n  \n    if(perrosAdoptados[perroIndex] ==msg.sender){\n      perrosAdoptados[perroIndex]= address(0);\n    }else{\n      desAdoptarConExito=false;\n    }\n    return desAdoptarConExito;\n\n  }\n\n  function getPerrosAdoptados() public view returns (address[16] memory){\n    return perrosAdoptados;\n  }\n}\n",
  "sourcePath": "C:\\Users\\Jorge Bencomo\\Desktop\\Enrique\\solidity\\contracts\\ContratoInicial.sol",
  "compiler": {
    "name": "solc",
    "version": "0.5.16+commit.9c3226ce.Emscripten.clang"
  },
  "schemaVersion": "3.4.10",
  "updatedAt": "2022-12-28T16:23:28.769Z",
  "networkType": "ethereum",
  "devdoc": {
    "methods": {}
  },
  "userdoc": {
    "methods": {}
  }
}